:020000020000FC
:10000000209A219A229A389A399A3A9A289A429AA8
:100010001AD02FD04298419A1AD041982898409AE5
:100020002A9A11D01AD02A98299A11D02998409842
:10003000EDCF4FE039E629E62A95F1F73A95D9F761
:100040004A95C1F7089503D002D001D00895F1DF99
:10005000F0DFEFDFEEDFEDDF08952A98EADF2A9A7E
:10006000E8DF2A98E6DF2A9AE4DF2A98E2DF2A9A74
:1000700008954298DEDF429ADCDF4298DADF429A46
:0A008000D8DF4298D6DF429A0895B7
:00000001FF
